:020000040800F2
:1000000010080020C1010008B3130008891200087D
:10001000B113000805030008DF1600080000000007
:1000200000000000000000000000000001150008B2
:100030000703000800000000B513000803150008BE
:10004000DB010008DB010008DB010008DB01000820
:10005000DB010008DB010008DB010008DB01000810
:10006000DB010008DB010008DB010008DB01000800
:10007000DB010008DB010008DB010008DB010008F0
:10008000DB010008DB010008DB010008DB010008E0
:10009000DB010008DB010008DB010008DB010008D0
:1000A000DB010008DB010008DB010008DB010008C0
:1000B000DB010008DB010008DB010008DB010008B0
:1000C000DB010008DB010008DB010008DB010008A0
:1000D000DB010008DB010008DB010008DB01000890
:1000E000DB010008DB010008DB01000800F002F87A
:1000F00000F03CF80AA090E8000C82448344AAF186
:100100000107DA4501D100F031F8AFF2090EBAE883
:100110000F0013F0010F18BFFB1A43F0010318473B
:100120007018000090180000103A24BF78C878C1F9
:10013000FAD8520724BF30C830C144BF04680C60ED
:10014000704700000023002400250026103A28BF35
:1001500078C1FBD8520728BF30C148BF0B60704739
:100160001FB500F062F81FBD10B510BD00F090F88B
:100170001146FFF7F5FF01F0E3FA00F0AEF803B423
:10018000FFF7F2FF03BC00F0B7F800000B49D1F80D
:1001900000C04A685CF8043B1068184442F8040B3D
:1001A0008C4528BFA1F1DC0C8A4228BFA1F1DC02FA
:1001B000C1F800C04A6020F000407047A80100204C
:1001C0000948804709480047FEE7FEE7FEE7FEE7EB
:1001D000FEE7FEE7FEE7FEE7FEE7FEE70448054927
:1001E000054A064B7047000065150008ED00000841
:1001F000100200201008002010040020100400202D
:100200000B4910B5A1F17C020A4CC2E93712372123
:1002100006E000EB104342F82130074B00FB03409F
:100220000B1EA1F10101F4DC10BD0120E8E7000084
:1002300048010020E119D666CD0D01004FF0000203
:1002400000B5134694469646203922BFA0E80C50CC
:10025000A0E80C50B1F12001BFF4F7AF090728BFA7
:10026000A0E80C5048BF0CC05DF804EB890028BF23
:1002700040F8042B08BF704748BF20F8022B11F04C
:10028000804F18BF00F8012B7047704770477047C8
:10029000754600F02BF8AE4605006946534620F03F
:1002A0000700854618B020B5FFF798FFBDE820404D
:1002B0004FF000064FF000074FF000084FF0000B22
:1002C00021F00701AC46ACE8C009ACE8C009ACE8D5
:1002D000C009ACE8C0098D46704710B50446AFF3BD
:1002E00000802046BDE81040FFF749BF0048704736
:1002F000B00100207047000001491820ABBEFEE7A6
:1003000026000200FEE7704772B6FEE770B50446AD
:1003100000F008F90546601C02D004480078044447
:1003200000F000F9401BA042FAD370BD1C00002071
:100330002DE9F84FDFF8B8910024A9F1040B23460A
:100340000F2709F1040AABF1040EC9E00125A5400D
:100350002A40AA427DD1674ED1F804C0ACEB060812
:10036000B44532D014DCBCF1030F3AD009DCBCF147
:10037000000F2AD0BCF1010F1CD0BCF1020F31D10B
:100380001DE0BCF1110F17D0BCF1120F2AD119E0FA
:10039000B8F5881F19D006DCB8F5803F15D0B8F540
:1003A000801F1FD111E0B8F5001F0ED0B8F5041F53
:1003B00018D10AE0CB6815E0CB681B1D12E0CB68B2
:1003C00008330FE0CB680C330CE08B682BB1012BAA
:1003D0004FF0080303D0456104E0042302E0056107
:1003E00000E00023FF2A01D8064601E000F10406E0
:1003F0004FEA840501D9A5F12005D6F8008007FA57
:1004000005FC28EA0C0803FA05F548EA0508C6F8D1
:1004100000804D68ED0062D5374DAE6946F00106AB
:10042000AE61AD6924F0030605F001050095334D7A
:1004300006EB050CDCF80850A607360F07FA06F89D
:1004400025EA0805DFF8B880404503D14FF00008E1
:1004500017E044E0DFF8AC80404502D14FF00108DE
:100460000FE0DFF8A480404502D14FF0020808E019
:10047000DFF89880404502D14FF0030801E04FF0CB
:10048000040808FA06F848EA0508CCF808804D6820
:10049000D9F80060ED024D4601D5164300E09643C1
:1004A0002E604D68DAF80060AD02554601D516435E
:1004B00000E096432E604D68DBF80060AD035D46BA
:1004C00001D5164300E096432E604D68DEF80060CB
:1004D000ED03754601D5164300E096432E60641C7B
:1004E0000D682A46E5407FF431AFBDE8F88F000083
:1004F00008040140000011100010024000000140FB
:1005000000080140000C01400010014000140140AF
:100510008068084000D0012070470AB1016170472F
:100520000904FBE701488068704700001C000020B8
:100530000248816802781144816070471C000020E5
:10054000074810B5016841F010010160032000F078
:1005500067F80F2000F006F800F024F8002010BD26
:100560000020024070B50D4D04464FF47A71287892
:10057000B1FBF0F00A490968B1FBF0F000F0B5FDFD
:1005800048B9102C07D200222146501E00F028F84E
:1005900000206C6070BD012070BD00001C000020B8
:1005A000280000200C4808B5816941F001018161F3
:1005B000816901F001010091C16941F08051C1617F
:1005C000C06900F0805000900448416821F0E0616B
:1005D00041F00071416008BD001002400000014080
:1005E000F0B40E4B1B680C46C3F30223C3F107059E
:1005F000042D00D90425191D072901D2002300E08C
:10060000DB1E012606FA05F1491E214099409E4055
:10061000761E16403143F0BC01F062B80CED00E0EC
:10062000064900F0070208684FF6FF03184040EA49
:100630000220034A10430860704700000CED00E000
:100640000000FA052DE9F0470F46050061D0434E42
:10065000306800F00700B84209D2306820F0070087
:1006600038433060306800F00700B84251D1286844
:100670003B4C810712D5400703D5606840F4E06029
:1006800060602878000703D5606840F460506060BF
:100690006068A96820F0F000084360602878C0070F
:1006A00028D06868012810D02168022810D0890756
:1006B00000292EDA616821F0030101436160FFF730
:1006C00031FF804641F288390DE021688903EFE768
:1006D0008901EDE7FFF726FFA0EB0801494502D9A4
:1006E0000320BDE8F0876068696800F00C00B0EB9B
:1006F000810FEFD1306800F00700B8420BD93068A5
:1007000020F0070038433060306800F00700B8423E
:1007100001D00120E5E72878400705D56068E96841
:1007200020F4E060084360602878000706D5606820
:10073000296920F4605040EAC100606000F038F898
:100740006168084AC1F30311515CC840064908605A
:1007500006480068FFF706FF0020C2E700200240BD
:100760000010024076190008280000202000002018
:100770000448054900684968044AC1F30221515CF4
:10078000C840704728000020001002408619000869
:100790000448054900684968044AC1F3C221515C14
:1007A000C840704728000020001002408619000849
:1007B0000E4A51680E4801F00C03042B11D0082B8F
:1007C0000FD10C48C1F38343C903C05C0AD55168FB
:1007D000084AC1F34041921E515C054A5043B0FBA8
:1007E000F1F0704704494843704700000010024090
:1007F00000127A006619000800093D002DE9F84F43
:10080000040070D02078C04DC00749D06868C0F39C
:100810008100012807D06868C0F38100022809D14F
:100820006868C00306D52868800339D56068002849
:10083000E7D035E06068B0F5803F0BD010B1B0F57F
:10084000A02F11D0286820F480302860286820F478
:10085000802002E0286840F480302860606890B111
:10086000FFF760FE06460AE0286840F48020286012
:10087000F0E700BFFFF756FE801B642873D8286896
:100880008003F7D50CE0FFF74DFE064605E000BFFC
:10089000FFF748FE801B6428F0D828688003F7D44F
:1008A00020789A4E80074FF001094FF0000839D5A3
:1008B000686810F00C0F07D06868C0F38100022848
:1008C00009D16868C00306D42868800714D5206958
:1008D000012808D110E02069B0B1C6F80090FFF7F8
:1008E00021FE074605E00AE1FFF71CFEC01B0228B7
:1008F000C4D828688007F7D52868616920F0F80017
:1009000040EAC10028600DE0C6F80080FFF70AFE4B
:10091000074604E0FFF706FEC01B022823D828681C
:100920008007F7D4207800072CD57948A169D9B180
:10093000C0F80090FFF7F6FD074604E0FFF7F2FD70
:10094000C01B02280FD8686A8007F7D571484FF49A
:10095000FA510068B0FBF1F0009000BF0098411E12
:100960000091FAD20EE080E0C0F80080FFF7DAFDD7
:10097000074604E0FFF7D6FDC01B022875D8686A59
:100980008007F7D42078400760D5E8690027C000C9
:1009900008D4E86940F08050E861E869012700F078
:1009A000805000905C480168C90513D401688346F3
:1009B00041F480710160FFF7B5FD824606E000BF9B
:1009C000FFF7B0FDA0EB0A0064284ED8DBF800006A
:1009D000C005F5D5E06801280AD008B1052813D074
:1009E000286A20F001002862286A20F0040002E052
:1009F000286A40F001002862E06841F2883B98B123
:100A0000FFF790FD82460BE0286A40F00400286260
:100A1000EEE700BFFFF786FDA0EB0A0159455AD863
:100A2000286A8007F6D50CE0FFF77CFD824605E0DA
:100A3000FFF778FDA0EB0A0159454CD8286A8007DA
:100A4000F6D41FB1E86920F08050E861E06988B30E
:100A50006968C1F38101022944D00228C6F8608088
:100A600004D0FFF75FFD044638E034E0FFF75AFD9D
:100A7000074604E0FFF756FDC01B02282BD8286864
:100A80008001F7D4206AB0F5803F05D16868A1687D
:100A900020F4003008436860D4E90801084369681D
:100AA00021F4741108436860C6F86090FFF73AFDBE
:100AB000044606E025E000BFFFF734FD001B0228D6
:100AC00009D828688001F7D51BE000BFFFF72AFD91
:100AD000001B022802D90320BDE8F88F2868800196
:100AE000F4D40EE00128F7D06868226A00F480315F
:100AF000914204D1616A00F47010884201D0012053
:100B0000EAE70020E8E7000000100240000042424F
:100B100080044242280000200070004070B50400AC
:100B200009D0606A002540B125616561A56294F82D
:100B3000510040B10CE0012070BD6068B0F5827FCB
:100B4000F4D0E561F2E784F85050204600F040F818
:100B5000022084F851002068016821F04001016002
:100B6000A088218900F4827001F404410843A1891E
:100B700001F400610843217C01F002010843217D5A
:100B800001F001010843218B01F400710843217F2A
:100B900001F03801084394F8201001F08001084367
:100BA000218D01F40051084321680860A0690421E7
:100BB00001EA1040216848602068C16921F40061A1
:100BC000C1616565012084F85100002070BD0000FE
:100BD00030B585B000240094019402940394006819
:100BE0001449884223D11448816941F480518161BC
:100BF000816901F480510491816941F004018161AE
:100C000080690E4D00F004000490A02000900220A6
:100C100001900320039069462846FFF789FB402096
:100C2000CDE90004694628460294FFF781FB05B030
:100C300030BD0000003001400010024000080140BB
:100C40002DE9F84F044690F851001D4616460F4610
:100C5000012838D160684FF00408B0F5827F01D1D7
:100C6000A06830B3FFF75EFC8246002F75D0002EDF
:100C700073D094F85000012825D04FF0010984F872
:100C8000509084F851804FF00008C4F85480A76356
:100C9000A687E687C4F83080A4F83480A4F83680AC
:100CA000C4F84080C4F84480A068B0F5004F0CD070
:100CB00015E084F85180009313460A46204600F060
:100CC0001CF9BDE8F88F0220FBE72068016821F0DD
:100CD000400101602068016821F4804101602068C2
:100CE0000168490603D4016841F040010160E068F1
:100CF000C0B134E020688168C90709D0007BA16BCE
:100D00000870A06B401CA063E08F401EE08709E0E4
:100D1000FFF708FCA0EB0A00A84202D3681C01D030
:100D200032E085B3E08F0028E4D11BE020688168C1
:100D3000C90709D0C068A16B0880A06B801CA063A4
:100D4000E08F401EE0870AE0FFF7ECFBA0EB0A0013
:100D5000A84203D3681C02D016E012E09DB1E08FD8
:100D60000028E3D152462946204600F024FB08B172
:100D70002020606584F8519084F85080606D0028D0
:100D80009FD001209DE7FFE784F8519084F85080C0
:100D9000032096E72DE9F84F984616468A46044602
:100DA000FFF7C0FB814694F8510001281ED1BAF12B
:100DB000000F73D0002E71D094F85000012815D088
:100DC000012784F85070032084F8510000256565E0
:100DD000C4F830A0A686E686A563A587E587656486
:100DE0002564A068B0F5004F03D00CE00220BDE8F8
:100DF000F88F2068016821F04001016020680168D7
:100E000041F48041016020680168490603D401680B
:100E100041F040010160E068B0F5006F606803D008
:100E200048B3012E27D047E008B1012E1FD1206B17
:100E300021680088C86006E020688168890709D5B4
:100E4000216B0988C160206B801C2063E08E401EEE
:100E5000E0860CE0FFF766FBA0EB0901414503D3F8
:100E6000B8F1FF3F03D035E0B8F1000F32D0E08E8B
:100E70000028E1D123E0206B21680078087306E0A8
:100E80002068816889070AD5216B09780173206B76
:100E9000401C2063E08E401EE0860DE02BE0FFF753
:100EA00041FBA0EB0901414503D3B8F1FF3F03D05B
:100EB00010E0B8F1000F0DD0E08E0028E0D14A46D6
:100EC0004146204600F0A5FA08B120206065A068E0
:100ED00030B109E084F8517084F85050032086E75F
:100EE0002068C1688068009084F8517004F8505FF1
:100EF00060680028F3D0012079E72DE9FF4F81B029
:100F00001D46934604464FF001090E9EFFF70AFB6B
:100F1000074694F851006168012806D0B1F5827F38
:100F20003CD1A168C9BB042838D10298002871D0EF
:100F3000BBF1000FFBD0002DF9D094F85000012830
:100F40002CD04FF0010A84F850A094F851000428E6
:100F500002D0052084F851004FF00008C4F85480F6
:100F6000C4F838B0E587A58702992163E586A58690
:100F7000C4F84080C4F8448020680168490603D45E
:100F8000016841F040010160E068B0F5006F606801
:100F900008D0F0B3012D49D081E0FFE7022005B071
:100FA000BDE8F08F08B1012D39D1206B2168008890
:100FB000C860206B801C2063E08E401EE0862EE01F
:100FC0002068816889070FD5E18E69B1B9F1010FF9
:100FD0000AD1216B0988C160206B801C2063E08EE0
:100FE000401EE0864FF0000920688168C9070CD0D8
:100FF000E18F51B1C068A16B0880A06B801CA06319
:10100000E08F401EE0874FF00109FFF78BFAC01B0D
:1010100001E00BE067E0B04201D3701C50D1E08EDC
:101020000028CDD1E08F0028CAD13EE0206B216896
:1010300000780873206B401C2063E08E401EE08621
:101040002DE02068816889070FD5E18E69B1B9F17B
:10105000010F0AD1216B09780173206B401C2063BA
:10106000E08E401EE0864FF0000920688168C907C5
:101070000CD0E18F51B1C068A16B0870A06B401C0F
:10108000A063E08F401EE0874FF00109FFF74AFAA6
:10109000C01BB04202D3701C01D011E086B1E08EBB
:1010A0000028CED1E08F0028CBD13A4631462046E9
:1010B00000F0AFF950B12020606584F8508012E054
:1010C00084F851A084F85080032068E7A06818B91C
:1010D0002068C1688068009084F851A084F850802E
:1010E000606D0028F1D0012059E710B5401EB0F125
:1010F000807F01D3012010BD4FF0E02460610F21FB
:10110000601700F0EDFA0020A061072020610020A8
:1011100010BD70B5040004D094F84100002510B152
:1011200006E0012070BD84F84050204600F024F80D
:10113000242084F841002068C16821F40051C16076
:10114000204600F037FA2068016921F490410161DE
:101150002068416921F02A0141612068C16841F499
:101160000051C1606564202084F8410084F8420089
:101170006563002070BD000030B585B00024009488
:1011800001940294039400681449884224D11448BD
:10119000816941F480418161816901F48041049158
:1011A000816941F00401816180690E4D00F0040005
:1011B00004904FF4007000900220019003200390EF
:1011C00069462846FFF7B4F82815CDE900046946BA
:1011D00028460294FFF7ACF805B030BD0038014056
:1011E00000100240000801402DE9F843044690F841
:1011F0004100984616460D46202802D00220BDE840
:10120000F88385B17EB100206064212084F841001C
:10121000FFF788F9A6848146E684A0682027B0F508
:10122000805F02D003E00120E9E7206910B12E467B
:1012300000250EE000260CE08021204600F016FA82
:10124000A8B9C6B116F8010B21684860E08C401EB1
:10125000E084E08C4B464FF00002CDF8008000287F
:10126000EAD14FF04001204600F000FA40B184F886
:1012700041700320C3E735F8020BC0F30800E3E731
:1012800084F841700020BAE7FEE700002DE9F04144
:1012900086B0002423480094019402940394816949
:1012A00041F020018161816901F02001049181698F
:1012B00041F004018161816901F0040104918169B7
:1012C00041F0080181618069174F00F00800049027
:1012D000002210213846FFF720F9DFF85080002265
:1012E00001214046FFF719F9102001250226CDE91A
:1012F0000005CDE9024669463846FFF719F803961E
:101300000095CDE9015469464046FFF711F8009673
:1013100069464046CDE90145FFF70AF806B0BDE849
:10132000F08100000010024000080140000C014064
:10133000104810B50E4901604FF4827141600021E0
:101340008160C1604FF400720161C0E9051218228A
:10135000C0E90721416281620A21C162FFF7DEFB19
:10136000002803D0BDE81040FEF7CEBF10BD00003E
:10137000003001402C0000200C4810B50A490160E3
:101380004FF416514160002181600C22C160C0E918
:1013900004128161C161FFF7BCFE002803D0BDE8E3
:1013A0001040FEF7B1BF10BD00380140840000209E
:1013B000FEE7FEE77047F8B5044640684FF48273D5
:1013C000984217D1A0684FF48065B0F5004F01D066
:1013D000A8420FD12068066826F0400606606068C3
:1013E000984207D1A068A84204D100920B4600227F
:1013F000012103E000920B4600228021204600F0EC
:1014000023F8002804D0606D40F0200060650320C0
:10141000F8BDF8B515460E460B460092044601226B
:10142000022100F011F840B9334600228021204605
:10143000009500F009F8002804D0606D40F020000D
:1014400060650320F8BD00002DE9F8431E46914673
:1014500088460446089DFFF765F8401B351AFFF7DC
:1014600061F8074625480068C0F3CB30684338E090
:10147000701C37D0FFF756F8C01BA84203D215B135
:10148000009860B32CE02068416821F0E0014160E1
:101490006068B0F5827F0BD1A068B0F5004F02D034
:1014A000B0F5806F04D12068016821F0400101602F
:1014B000A06AB0F5005F09D12068016821F40051ED
:1014C00001602068016841F400510160012084F846
:1014D0005100002084F850000320BDE8F883002567
:1014E000401E00902068816838EA010004D0002185
:1014F0004945BDD10020F0E70121F9E7280000208F
:101500007047FFF715B830B58FB028216846FEF751
:1015100095FE14210AA8FEF791FE01210804CDE9E9
:1015200000100024029402250491CDE907504FF4E5
:10153000E01009906846FFF761F908B172B6FEE75E
:101540000F20CDE90A054FF48060CDE90C4002215F
:101550000AA80E94FFF776F8002801D072B6FEE7CD
:101560000FB030BD704701680C3151E8002F22F4F4
:10157000907241E80023002BF5D10168143151E845
:10158000002F22F0010241E80023002BF5D1016B6E
:10159000012909D101680C3151E8002F22F0100215
:1015A00041E80023002BF5D1202180F842100021D2
:1015B0000163704770B5044600680169E26821F470
:1015C0004051114301612169A068084361690843E2
:1015D0002168CA6841F20C639A430243CA602068DA
:1015E0004169A26921F44071114341611E4920689B
:1015F000884202D1FFF7CCF801E0FFF7B9F800EB21
:10160000C00101EB0012606864218000B2FBF0F3BE
:10161000B3FBF1F36FF018067343B2FBF0F5B2FBC6
:10162000F0F605EB8305322303EB0515B5FBF1F569
:10163000B6FBF1F605F0F00505EB0615B2FBF0F68A
:10164000B2FBF0F0B0FBF1F06FF01802504306EB84
:10165000800003EB0010B0FBF1F0216800F00F00F8
:101660002844886070BD0000003801402DE9F8432F
:10167000984617460D460446089E24E0701C22D06A
:10168000FEF750FFA0EB0800B0421AD8CEB1206898
:10169000C168490717D5802D15D0402D13D001689A
:1016A000C94309070FD4016800254068009020460F
:1016B000FFF759FF0820606484F840500120BDE81E
:1016C000F8830320FBE72068006835EA000004D0B7
:1016D0000020B842D2D00020F1E70120F9E7FEE770
:1016E0000907090E002804DB00F1E02080F800144F
:1016F000704700F00F0000F1E02080F8141D7047E3
:10170000012211460148FEF708BF0000000C01400D
:10171000002201210148FEF700BF0000000C01403B
:10172000012210210148FEF7F8BE00000008014028
:10173000002210210148FEF7F0BE00000008014021
:10174000FEF7FEFEFFF7DFFEFFF7A0FDFFF7F0FD5F
:10175000FFF712FE0021282000F08CF84FF47A7673
:101760003046FEF7D3FD224D02212846FEF7D0FE7B
:101770000028F9D11420FEF7C9FD02212846FEF702
:10178000C7FE0028F0D1642308221A491A48FFF73F
:101790002BFD4FF47A60FEF7B9FD16496423082249
:1017A00008311548FFF720FDFEF7F0FC90FBF6F13D
:1017B00006FB110000F2DC50FEF7A8FD0D49642382
:1017C000082210310C48FFF70FFD00240948C01E05
:1017D00000F072F8641C0A2CF8DB02212846FEF7A0
:1017E00097FE0028F9D03046FEF790FDBCE70000D8
:1017F000000C0140030000208400002008B5FFF722
:1018000087FF0821002000F08FF80121084600F032
:101810008BF80121022000F087F80321084600F030
:1018200083F81A21042000F07FF82821052000F019
:101830007BF80F21062000F077F8E1208DF80000FA
:10184000FFF776FF6423012269460948FFF7A2FAF1
:10185000FFF766FFE2208DF80000FFF769FF6423C1
:10186000012269460248FFF795FAFFF759FF08BDC4
:101870002C00002070B50C460546FFF7BFFF294637
:10188000052000F051F8062114B1022C02D002E02C
:10189000262100E00E21062000F046F8002000F08E
:1018A0002BF820F0010040F00201002000F03CF88D
:1018B000BDE87040FFF72CBF38B50446A0208DF876
:1018C0000000FFF735FF6423012269460948FFF74E
:1018D00061FA6423202221460648FFF75BFAFFF7EE
:1018E0001FFFFFF70DFF0120FEF710FDFFF710FFB0
:1018F00038BD00002C0000201CB58DF80000FFF75B
:1019000017FF6423012269460648FFF743FA642360
:10191000012201A90348FFF793F9FFF701FF9DF8A2
:1019200004001CBD2C00002003B583B040F0200053
:101930008DF80400FFF7FCFE64200090012302AA4A
:1019400001A90748FFF7D9FA6423012204A9044832
:10195000FFF720FAFFF7E4FE9DF8080005B000BD90
:101960002C000020010202030405060708090A0BE7
:101970000C0D0E0F1010000000000000000001020E
:101980000304060708090000000001020304000028
:10199000B0190008000000202C00000028010008F9
:1019A000DC1900082C000020E407000044010008B6
:1019B000474F007EFF0603000001EF7EFF06030095
:1019C0000002EF7EFF0603000003EF0001000000AD
:0C19D000100000000000000000127A006F
:04000005080000ED02
:00000001FF
