:020000040800F2
:10000000A8070020A10100084B2A00084128000889
:10001000492A00083F1200084B2F0008000000008A
:10002000000000000000000000000000B52D0008E6
:1000300041120008000000006B2C0008B72D0008DA
:10004000BB010008BB010008BB010008BB010008A0
:10005000BB010008BB010008BB010008BB01000890
:10006000BB010008BB010008BB010008BB01000880
:10007000BB010008BB010008BB010008BB01000870
:10008000BB010008BB010008BB010008BB01000860
:10009000BB010008BB010008BB010008BB01000850
:1000A000BB010008BB010008BB010008BB01000840
:1000B0001D2E0008BB010008BB010008BB010008A1
:1000C000BB010008BB010008BB010008BB01000820
:1000D000BB010008BB010008BB010008BB01000810
:1000E000BB010008BB010008BB01000800F002F8DA
:1000F00000F047F80AA090E8000C82448344AAF17B
:100100000107DA4501D100F03CF8AFF2090EBAE878
:100110000F0013F0010F18BFFB1A43F0010318473B
:10012000E83D0000083E0000103A24BF78C878C1BE
:10013000FAD8520724BF30C830C144BF04680C60ED
:10014000704700000023002400250026103A28BF35
:1001500078C1FBD8520728BF30C148BF0B60704739
:10016000662903F06482002070471FB500F02AFB67
:1001700004000020002103F0D5F8E0601FBD10B599
:1001800010BD00F01FFC1146FFF7EFFF02F086FFE5
:1001900000F03DFC03B4FFF7F2FF03BC00F080FC6D
:1001A0000948804709480047FEE7FEE7FEE7FEE70B
:1001B000FEE7FEE7FEE7FEE7FEE7FEE70448054947
:1001C000054A064B70470000192E0008ED00000894
:1001D000A8010020A8070020A8030020A8030020F1
:1001E0000FB41CB5074B06AA7B44694600900598DE
:1001F00000F0CFFA0020694600F0DEFA1CBC5DF882
:1002000014FB0000CD0500002DE9F0474FF0000A77
:1002100089460446C0F820A02046E16888470028A7
:1002200076D0252806D0D4E901219047206A401CC9
:100230002062F1E7E168204600258847C4F81CA049
:1002400006460027C4F818A02A2E09D0304602F02E
:10025000FDFE38B304EB8708303EC8F8186019E09B
:1002600059F8041B204604EB87029161E168884736
:10027000012F064618D1E069002820DA25F0200574
:100280001DE0D8F8180000EB800006EB4000303885
:10029000C8F818002046E1688847064602F0D6FEF6
:1002A0000028EED1012F0AD02E2E08D12046E16879
:1002B00088477F1C0646022F45F02005C4DBA06955
:1002C000002803DA404245F00105A061E80701D0AB
:1002D00025F01005B6B1A6F14100192802D8203644
:1002E00045F400654A463146204625604D46FFF7F5
:1002F00037FF58B1012806D0ED1D25F0070000F1A9
:10030000080989E704E005F1040985E730468AE732
:10031000206ABDE8F0874FF0000200B5134694460E
:100320009646203922BFA0E80C50A0E80C50B1F14D
:100330002001BFF4F7AF090728BFA0E80C5048BF61
:100340000CC05DF804EB890028BF40F8042B08BFFF
:10035000704748BF20F8022B11F0804F18BF00F8FB
:10036000012B704770477047704770472DE9FF4F6A
:100370000C461E464FF0FF378BB0D2E90001DDF886
:1003800060800A908A46C1F30A5505B93D460021AE
:1003900008464FF00000BAF1000F00F4400005DA03
:1003A00000EB80004FF4400101EA50004FEA905901
:1003B000B9F1010F00DDB9460A9850EA4A000ED0A3
:1003C00044F61050A5F2FF3545432F14B8F1000F45
:1003D0001ED07542291E1EDDC9F100021CE0B8F1D5
:1003E000010F4FF0000001D0302103E0F24305E09F
:1003F0002154401CB042FBDB304600220021215436
:100400000B99C1F80880C1E900200FB0BDE8F08F5A
:10041000BD1B6D1CDEE74A4600DA694206A800F003
:100420005BFA06AB93E8070003AB83E8070050468E
:100430000A9900F03CFB8DE80700A0F500501F383A
:1004400000900398002D0ADD42F21F014A4608443D
:10045000002303A90390684600F0A5FD09E0A0F57C
:1004600000504A461F38002303A90390684600F055
:10047000AFFD8DE807000004000C03D04FF0FF3003
:10048000410800E01046B8F1000F03D000220092AE
:1004900015461EE0751E05D400F098F930326255FD
:1004A0006D1EF9D5B3460122084302D000227F1CFD
:1004B00004E02078302801D100227F1E002A09970D
:1004C00084D01DE0112D07DA00F080F9303262553A
:1004D0006D1C50EA0102F5D1084302D00098C8B162
:1004E0000EE00021681E05E0235C625C6354225428
:1004F000401E491C8142F7DBAB46A81B401E0990F9
:10050000002004F80B000B98099AC0F80880C0E995
:10051000002B7AE711264FF0000857E72DE9F04F3E
:1005200088460446D21D22F0070191B0D1E90001AE
:10053000CDE90A0102F066FD02460B98C00F01D01A
:100540002D2007E02068810701D52B2002E0202123
:1005500001EAC000032A099001D0072A05DB0346FF
:100560004146204600F078F90BE12078800601D55D
:10057000E06900E00620B8F1650F814606D0B8F1C9
:10058000660F18D0B8F1670F70D131E00020B9F1D3
:10059000110F009001DB112301E009F101030AAA08
:1005A00001A90CA8FFF7E2FEDDE90C70002609F1B5
:1005B0000105834647E001204B4600904FF000477D
:1005C0000AAA01A90CA8FFF7D1FEDDE90DB00C992C
:1005D0005D46002610B909F101000D18B9EB0500C0
:1005E00003D4C0F1FF3609F10105A5EB09002BE0AA
:1005F000B9F1010F01DA4FF001090020B9F1110F33
:100600000090484601DD112300E003460AAA01A933
:100610000CA8FFF7ABFEDDE90C704D4600268346C3
:10062000207800070AD4AB4500DA5D4601A8012D09
:1006300004DD411911F8011C302907D04F4502DAB9
:1006400017F1040F04DA012082460FE06D1EEEE779
:10065000002F02DCED1B3E4403E0781CA84200DDC5
:100660007D1CB81B00F1010A4FF0004720780007FD
:1006700003D4AA4501DB4FF0FF3A0021B7F1004F48
:100680000DF143088DF8431024D002202B23002FB6
:1006900001DA7F422D230A21021EA0F1010000DCB5
:1006A0005FB197FBF1FC97FBF1F201FB1C7C174655
:1006B0000CF1300C08F801CDEEE7A8F10100037051
:1006C0002188090501D5452100E06521A0F1010837
:1006D00000F8011C09980FA9A1EB0807FF1D00B144
:1006E0000120411901EBEA70A1693844081A401E43
:1006F000A0612078C00602D42046AFF3008009989C
:1007000028B1D4E901219047206A401C206220785A
:10071000C00622D52046AFF300801EE0002E04DB89
:10072000B34502DD01A8805D00E03020D4E901215D
:100730009047206A401C2062761CAAF101005FEA03
:10074000000A0AD100F03EF8C0680168405CD4E9B4
:1007500001219047206A401C2062281EA5F1010556
:10076000DCDC07E0D4E9012118F8010B9047206A8E
:10077000401C2062381EA7F10107F3DC2046AFF3CE
:100780000080032011B041E601694A1C026108782B
:10079000704700B58FB0CDE90131002105910549C1
:1007A0007944CDE9031011466846FFF72DFD0FB0DF
:1007B00000BD0000E5FFFFFF0A6802F8010B0A60B8
:1007C00070470000004870476401002030B5B0F168
:1007D0000A024FEA900E71F100034EEA817EB0EBFF
:1007E0000E0061EB91014FEA101E4EEA017E10EB04
:1007F0000E0041EB11114FEA102E4EEA016E10EB84
:100800000E0041EB11214FEA104E4EEA014E10EB63
:100810000E0041EB1141401841F100014FEAD000B8
:1008200040EA41704FEAD10110EB80054FEA8104A4
:1008300044EA907444EB01046D1944EB0404521B28
:10084000A3414FF0000348BF0A3200D530BD401C21
:1008500041F1000130BD00002DE9F0411F46044682
:1008600003260168072A01F4006004DB08B116A51D
:1008700005E016A503E008B115A500E015A521F0D7
:1008800010002060A069C01EA0610FB1401EA061D1
:100890002046AFF300804FB1D4E90121384690479C
:1008A000206A401C2062C01C206206E0206AFAE731
:1008B000D4E9012115F8010B9047761EF8D22046A5
:1008C000AFF30080BDE8F0814E414E006E616E00D6
:1008D000494E4600696E66002DE9F047814616468E
:1008E0008AB0354878440DC88DE80D003248784408
:1008F000801C03AC0DC884E80D0041F69B30084411
:10090000372190FBF1F290FBF1F5A5F1800501FB99
:1009100012041B3C02D56442012000E00020DFF8F5
:1009200098A080460027FA44AAF1BE0A0EE0E0072C
:100930000AD03246684607EB470101230AEB8101E2
:1009400000F046FB8DE8070064107F1C002CEED100
:10095000194F7F44AE3F19E0E80715D007EB0410AC
:100960000DF1180A90E80E008AE80E00C068F04207
:1009700001D1981908903246012306A903A800F076
:1009800027FB03AB83E807006D10641C002DE3D147
:100990004FF0010332466946B8F1000F03A802D0B8
:1009A00000F001FB01E000F013FBC9E90001C9F808
:1009B00008200AB0BDE8F0870836000000487047FC
:1009C000440100207546FFF7F9FFAE460500694671
:1009D000534620F00700854618B020B5FFF7EEFB20
:1009E000BDE820404FF000064FF000074FF0000830
:1009F0004FF0000B21F00701AC46ACE8C009ACE8B1
:100A0000C009ACE8C009ACE8C0098D46704710B514
:100A10000446AFF300802046BDE81040FFF7BABBA4
:100A20004FF0013C50F8042B51F8043B9A4221D17D
:100A3000A2EB0C03934313EACC1317D150F8042B09
:100A400051F8043B9A4215D1A2EB0C03934313EAED
:100A5000CC130BD150F8042B51F8043B9A4209D126
:100A6000A2EB0C03934313EACC13DBD04FF000004E
:100A7000704700BFD01A01BAB1FA81F101F0180134
:100A800022FA01F0CB40C1F12001DBB2C0B2C01AA2
:100A90002CFA01F3D11A914311EAC311E6D1704740
:100AA00001491820ABBEFEE72600020070475FEA4E
:100AB000400C08BF91F0000F4FEA8C234FEAC1228F
:100AC00043EA51514FEA1C5018BF00F5F0404FEA7D
:100AD000300018BF41F000415FEA6C5C00F02980F3
:100AE000BCF1FF3F08BF40F080407047130C06BFC9
:100AF00012044FF0100C4FF0000C130E04BF120242
:100B00000CF1080C130F04BF12010CF1040C930F2D
:100B100004BF92000CF1020CD30F04BF52000CF181
:100B2000010C11464FF00002A0F11F00A0EB0C00D9
:100B3000704711F0004F08BF704731F000413FF49B
:100B4000D5AF0B0C06BF09044FF0100C4FF0000C92
:100B50000B0E04BF09020CF1080C0B0F04BF0901B6
:100B60000CF1040C8B0F04BF89000CF1020CCB0FAD
:100B700004BF49000CF1010CCCF12003A0EB0C00E8
:100B800022FA03F302FA0CF241EA030100F1010038
:100B9000704720F07F4C80EA030023F07F47ACEBE6
:100BA000070303F57C5300F0004003F1FF032DE938
:100BB00080494FEA154B09B44FEA144325EA0B4E1E
:100BC00024EA03480FF2042606EB132749083E786F
:100BD0005FEA320203FB0667C7F5000707FB06F66C
:100BE0004FEA54374FEAD64606F1020607FB066C79
:100BF000CCF1005C4FEA1C472CEA074C07FB06F4DB
:100C00000CFB06F504EB15464FEA961634BF0020A0
:100C10004FF000404FEAD13706FB07FC4FEA1C4C6F
:100C20000CFB0BF7D21B03FB0CF761EB07010CFB72
:100C30000EF7B0EB074072EB17420CFB08F734BF1E
:100C4000A2EB0742B2EB074261EB17414FEA0C44BB
:100C50004FEA910706FB07FC4FEA1C4C0CFB0BF715
:100C6000B0EBC74072EB573203FB0CF734BFA2EB7B
:100C7000C742B2EBC74261EB57310CFB0EF7B0EB4A
:100C8000C70072EB57720CFB08F734BFA2EBC70228
:100C9000B2EBC70261EB5771039F4FEA816141EAF2
:100CA000921104EBCC044FEAD1374FEA826206FB83
:100CB00007FC42EA90124FEA80604FEA1C4C0CFBA2
:100CC0000BF7D21B03FB0CF761EB07010CFB0EF7D4
:100CD000B0EB074072EB17420CFB08F734BFA2EBF6
:100CE0000742B2EB074261EB17414FEA8C554FEADE
:100CF000910704EB9C2406FB07FC4FEA1C4C0CFB01
:100D00000BF7B0EBC74072EB573203FB0CF734BF65
:100D1000A2EBC742B2EBC74261EB57310CFB0EF7B7
:100D2000B0EBC70072EB57720CFB08F734BFA2EBB5
:100D3000C702B2EBC70261EB577115EB4C254FEAC6
:100D4000816141EA92114FEA82624FEAD13742EA69
:100D5000901206FB07FC44F100044FEA80604FEA62
:100D60001C4C0CFB0BF7D21B03FB0CF761EB0701D0
:100D70000CFB0EF7B0EB074072EB17420CFB08F7C9
:100D800034BFA2EB0742B2EB074261EB174115EB10
:100D90001C154FEA813141EA92414FEA823242EA20
:100DA00090424FEA80304FEA0C7644F1000448EA62
:100DB00003434EEA0B484FF0000EB2EB080C71EB08
:100DC000030724BF624639464EEB0E0E4FF0000B70
:100DD0000018524149414BEB0B0BB2EB080C71EB85
:100DE00003077BF1000B24BF624639464EEB0E0E23
:100DF0004FF0000B0018524149414BEB0B0BB2EB8B
:100E0000080C71EB03077BF1000B24BF62463946E7
:100E10004EEB0E0E51EA020718BF46F0010616EB24
:100E20000E7655F1000254F1000103D5BDE88901A9
:100E3000BDE80088BDE88901BDE80048B619524107
:100E400041EB0101A3F10103704780807F7E7D7C2F
:100E50007B7A7978777676757473727171706F6E4C
:100E60006E6D6C6C6B6A6A696868676666656464F7
:100E7000636362616160605F5F5E5E5D5D5C5C5B81
:100E80005B5A5A59595858575756565555555454F0
:100E9000535352525251515050504F4F4F4E4E4D4E
:100EA0004D4D4C4C4C4B4B4B4A4A4A49494948489A
:100EB00048474747474646464545454444444443DA
:100EC00043434342424242414141002B9C4630D47D
:100ED00077002BD01CB54FEA370703B44FF0100052
:100EE0004FF01001BAF1000F06D0BCF1000FDCBFCB
:100EF00040F0080040F008014FF000000FBCBDE8D2
:100F000010400BF1010BBBF1010F08BF5FEA17079F
:100F100022BF12F1010211F101014FF0004143F132
:100F2000000300F0004043EA00007047F9D357087F
:100F3000D0E746EA064613F1400F4FEA16461FDD9A
:100F400013F1200FDFBF16430A46002120335B4216
:100F5000BED0C3F1200746EA064602FA07F74FEA79
:100F6000164646EA0706C3F1200722FA03F201FA01
:100F700007F721FA03F14FF0000342EA0702A7E75F
:100F800046EA020646EA06464FEA164646EA0106E1
:100F9000BCBF46EA0646360C4FF000034FF0000295
:100FA0004FF0000194E72DE9804C9A46934670B4C7
:100FB00091E8380007C831EA400C48BF34EA430CD6
:100FC00003D5FFF7E6FDFFF780FFF0BCBDE8008C1E
:100FD0002DE9804C9A46934670B491E8380007C8D2
:100FE00010F0804F08BF13F0804F03D100F005F8D8
:100FF000FFF76BFFF0BCBDE8008C20F07F4780EA74
:10100000030023F07F4C07EB0C03A3F57C5300F0A7
:101010000040A3F1FE0392F0000F00F0B38095F0C2
:10102000000F00F077802DE901494FEA11404FEAA7
:10103000144621EA004800FB06FC24EA064708FBA8
:1010400006F607FB08F800FB07F718EB06484CEB21
:10105000164C4FEA124B18EB07484FEA15464CEB7B
:10106000174022EA0B4E0BFB06FC25EA06470EFB57
:1010700006F607FB0EFE0BFB07F71EEB064E4CEBCE
:10108000164C4FF000061EEB074E4CEB174B18EBBF
:101090000B0840F1000018EB0E0B58EB000840F174
:1010A00000008F1A4FF000013CBFC943661B14BFFC
:1010B000B5EB040C00213CBFC943F61B4FEA1744B3
:1010C0004EEA8E0E27EA04454FEA1C4704FB0762EE
:1010D0002CEA074C05FB07F70CFB05F604FB0CFCA0
:1010E00016EB074642EB174216EB0C4642EB1C424E
:1010F0001BEB060658EB0202414146EA9E0601D56B
:10110000BDE80189B619524141EB0101A3F1010388
:10111000BDE801894FEA14454FEA114724EA054624
:1011200021EA074C05FB07F406FB07F70CFB06F169
:1011300005FB0CFC11EB074144EB17444FEA124747
:1011400011EB0C4144EB1C4422EA074C05FB07F26F
:1011500006FB07F70CFB06F605FB0CFC16EB074637
:1011600042EB174216EB0C4642EB1C456A1854F151
:10117000000148BF7047B619524141EB0101A3F18C
:101180000103704795F0000F37D04FEA11424FEA44
:10119000144721EA024624EA074C02FB07F106FB4A
:1011A00007F70CFB06F402FB0CFC14EB074441EBC5
:1011B00017414FEA154714EB0C4441EB1C4125EA5B
:1011C000074C02FB07F506FB07F70CFB06F602FBD4
:1011D0000CFC16EB074645EB174516EB0C4645EBAA
:1011E0001C42121951F1000148BF7047B619524113
:1011F00041EB0101A3F1010370474FEA14454FEAA7
:10120000114724EA054621EA074C05FB07F106FBD6
:1012100007F70CFB06F24FF0000605FB0CFC12EB87
:10122000074241EB174112EB0C4251EB1C4148BF06
:101230007047921841EB0101A3F101037047FEE7EB
:10124000704772B6FEE7000070B5044600F004F97E
:101250000546601C02D004480078044400F0FCF805
:10126000401BA042FAD370BD0C0000202DE9F84FBE
:10127000DFF8B8910024A9F1040B23460F2709F1E8
:10128000040AABF1040EC9E00125A5402A40AA4298
:101290007DD1674ED1F804C0ACEB0608B44532D01E
:1012A00014DCBCF1030F3AD009DCBCF1000F2AD0EA
:1012B000BCF1010F1CD0BCF1020F31D11DE0BCF11B
:1012C000110F17D0BCF1120F2AD119E0B8F5881F01
:1012D00019D006DCB8F5803F15D0B8F5801F1FD1B6
:1012E00011E0B8F5001F0ED0B8F5041F18D10AE0C0
:1012F000CB6815E0CB681B1D12E0CB6808330FE00C
:10130000CB680C330CE08B682BB1012B4FF008033A
:1013100003D0456104E0042302E0056100E00023FE
:10132000FF2A01D8064601E000F104064FEA8405D1
:1013300001D9A5F12005D6F8008007FA05FC28EAB6
:101340000C0803FA05F548EA0508C6F800804D6860
:10135000ED0062D5374DAE6946F00106AE61AD696C
:1013600024F0030605F001050095334D06EB050C4E
:10137000DCF80850A607360F07FA06F825EA080534
:10138000DFF8B880404503D14FF0000817E044E093
:10139000DFF8AC80404502D14FF001080FE0DFF8E4
:1013A000A480404502D14FF0020808E0DFF89880A1
:1013B000404502D14FF0030801E04FF0040808FA5D
:1013C00006F848EA0508CCF808804D68D9F80060AE
:1013D000ED024D4601D5164300E096432E604D6860
:1013E000DAF80060AD02554601D5164300E0964399
:1013F0002E604D68DBF80060AD035D4601D51643F5
:1014000000E096432E604D68DEF80060ED037546FF
:1014100001D5164300E096432E60641C0D682A46F1
:10142000E5407FF431AFBDE8F88F000008040140CB
:1014300000001110001002400000014000080140AF
:10144000000C014000100140001401400AB101618C
:1014500070470904FBE700000148806870470000FE
:101460000C00002070B5040025D094F83D00002544
:1014700020B984F83C50204600F0B8F8242084F8C5
:101480003D002068016821F00101016020680168C9
:1014900041F4004101602068016821F400410160CD
:1014A00000F000FA4D4A6168914201D84C4900E0D1
:1014B0004C49884201D2012070BD4B492368B0FBE2
:1014C000F1F15E6826F03F060E435E60636893426A
:1014D00006D94FF4967359434FF47A73B1FBF3F185
:1014E0002368491C1E6A26F03F0631431962616871
:1014F000914210D84900401EB0FBF1F2521CC2F3D9
:101500000B02042A01D2042022E0B0FBF1F0401CBF
:10151000C0F30B001CE0A268F2B301EBC10303EBC4
:101520000116431EB3FBF6F35B1C43F480431B051B
:1015300049D092B301EBC10202EB0111401EB0FB96
:10154000F1F0401CC0F30B0040F4804040F4004038
:101550002168CA694CF6FF739A431043C861D4E905
:10156000071001432068026822F0C00211430160A5
:10157000D4E9030101432068826848F2FF339A43AB
:1015800011438160D4E9050108432168CA6822F04B
:10159000FF021043C86001E00EE016E02068016819
:1015A00041F0010101602564202084F83D0025639D
:1015B00084F83E50002070BD01EB4106431EB3FB92
:1015C000F6F35B1CB3E70120C2E701EB4101401ECB
:1015D000B0FBF1F0401CC0F30B00B7E7A0860100A0
:1015E00080841E0000093D0040420F0010B586B007
:1015F0000021009101910291039100680F498842F6
:101600001AD10F4CA06940F00800A061A06969469A
:1016100000F008000490C0200090122001900320E8
:1016200003900848FFF722FEE06940F40010E061F3
:10163000E06900F40010049006B010BD00540040B2
:1016400000100240000C01400248816802781144F9
:10165000816070470C000020074810B5016841F018
:1016600010010160032000F075F80F2000F006F86B
:1016700000F024F8002010BD0020024070B50D4D90
:1016800004464FF47A712878B1FBF0F00A490968F2
:10169000B1FBF0F000F0B3FD48B9102C07D20022E6
:1016A0002146501E00F036F800206C6070BD01200D
:1016B00070BD00000C000020180000200C4808B588
:1016C000816941F001018161816901F001010091AD
:1016D000C16941F08051C161C06900F08050009043
:1016E0000448416821F0E06141F00071416008BDAB
:1016F0000010024000000140002809DB00F01F023A
:10170000012191404009800000F1E020C0F8001163
:1017100070470000F0B40E4B1B680C46C3F3022365
:10172000C3F10705042D00D90425191D072901D28D
:10173000002300E0DB1E012606FA05F1491E2140C8
:1017400099409E40761E16403143F0BC01F06EBCBD
:101750000CED00E0064900F0070208684FF6FF03B1
:10176000184040EA0220034A104308607047000016
:101770000CED00E00000FA052DE9F0470F460500EA
:1017800061D0434E306800F00700B84209D230689B
:1017900020F0070038433060306800F00700B8429E
:1017A00051D128683B4C810712D5400703D56068AA
:1017B00040F4E06060602878000703D5606840F47A
:1017C000605060606068A96820F0F00008436060C5
:1017D0002878C00728D06868012810D0216802281E
:1017E00010D0890700292EDA616821F00301014336
:1017F0006160FFF731FE804641F288390DE02168D3
:101800008903EFE78901EDE7FFF726FEA0EB08016A
:10181000494502D90320BDE8F0876068696800F097
:101820000C00B0EB810FEFD1306800F00700B84238
:101830000BD9306820F0070038433060306800F082
:101840000700B84201D00120E5E72878400705D518
:101850006068E96820F4E060084360602878000769
:1018600006D56068296920F4605040EAC1006060D4
:1018700000F028F86168084AC1F30311515CC840C0
:101880000649086006480068FFF7F8FE0020C2E736
:1018900000200240001002405C3E000818000020BA
:1018A000100000200448054900684968044AC1F353
:1018B0000221515CC840704718000020001002400F
:1018C0006C3E00080E4A51680E4801F00C03042BD0
:1018D00011D0082B0FD10C48C1F38343C903C05C5E
:1018E0000AD55168084AC1F34041921E515C054A2D
:1018F0005043B0FBF1F07047044948437047000083
:101900000010024000127A004C3E000800093D0021
:101910002DE9F84F040070D02078C04DC00749D0A1
:101920006868C0F38100012807D06868C0F38100AF
:10193000022809D16868C00306D52868800339D514
:1019400060680028E7D035E06068B0F5803F0BD0D4
:1019500010B1B0F5A02F11D0286820F48030286095
:10196000286820F4802002E0286840F48030286055
:10197000606890B1FFF770FD06460AE0286840F401
:1019800080202860F0E700BFFFF766FD801B642819
:1019900073D828688003F7D50CE0FFF75DFD064695
:1019A00005E000BFFFF758FD801B6428F0D82868C9
:1019B0008003F7D420789A4E80074FF001094FF04A
:1019C000000839D5686810F00C0F07D06868C0F3BC
:1019D0008100022809D16868C00306D428688007FE
:1019E00014D52069012808D110E02069B0B1C6F8EB
:1019F0000090FFF731FD074605E00AE1FFF72CFDF7
:101A0000C01B0228C4D828688007F7D528686169F8
:101A100020F0F80040EAC10028600DE0C6F8008020
:101A2000FFF71AFD074604E0FFF716FDC01B02286A
:101A300023D828688007F7D4207800072CD5794868
:101A4000A169D9B1C0F80090FFF706FD074604E090
:101A5000FFF702FDC01B02280FD8686A8007F7D580
:101A600071484FF4FA510068B0FBF1F0009000BFEC
:101A70000098411E0091FAD20EE080E0C0F800808C
:101A8000FFF7EAFC074604E0FFF7E6FCC01B02286C
:101A900075D8686A8007F7D42078400760D5E86970
:101AA0000027C00008D4E86940F08050E861E86988
:101AB000012700F0805000905C480168C90513D4EC
:101AC0000168834641F480710160FFF7C5FC8246DE
:101AD00006E000BFFFF7C0FCA0EB0A0064284ED868
:101AE000DBF80000C005F5D5E06801280AD008B190
:101AF000052813D0286A20F001002862286A20F007
:101B0000040002E0286A40F001002862E06841F227
:101B1000883B98B1FFF7A0FC82460BE0286A40F0B2
:101B200004002862EEE700BFFFF796FCA0EB0A0175
:101B300059455AD8286A8007F6D50CE0FFF78CFC87
:101B4000824605E0FFF788FCA0EB0A0159454CD816
:101B5000286A8007F6D41FB1E86920F08050E86158
:101B6000E06988B36968C1F38101022944D0022881
:101B7000C6F8608004D0FFF76FFC044638E034E01C
:101B8000FFF76AFC074604E0FFF766FCC01B02286B
:101B90002BD828688001F7D4206AB0F5803F05D1A2
:101BA0006868A16820F4003008436860D4E908013F
:101BB0000843696821F4741108436860C6F86090AE
:101BC000FFF74AFC044606E025E000BFFFF744FCAF
:101BD000001B022809D828688001F7D51BE000BF48
:101BE000FFF73AFC001B022802D90320BDE8F88F5A
:101BF00028688001F4D40EE00128F7D06868226AD2
:101C000000F48031914204D1616A00F4701088427E
:101C100001D00120EAE70020E8E7000000100240C0
:101C20000000424280044242180000200070004040
:101C300070B5040009D0606A002540B12561656176
:101C4000A56294F8510040B10CE0012070BD6068BD
:101C5000B0F5827FF4D0E561F2E784F85050204679
:101C600000F040F8022084F851002068016821F05B
:101C700040010160A088218900F4827001F40441D0
:101C80000843A18901F400610843217C01F00201AD
:101C90000843217D01F001010843218B01F400710B
:101CA0000843217F01F03801084394F8201001F027
:101CB00080010843218D01F4005108432168086028
:101CC000A069042101EA1040216848602068C169C8
:101CD00021F40061C1616565012084F85100002094
:101CE00070BD000030B585B00024009401940294CA
:101CF000039400681449884223D11448816941F44F
:101D000080518161816901F480510491816941F0C0
:101D10000401816180690E4D00F004000490A02050
:101D20000090022001900320039069462846FFF7A7
:101D30009DFA4020CDE90004694628460294FFF749
:101D400095FA05B030BD000000300140001002409F
:101D5000000801402DE9F84F044690F851001D4657
:101D600016460F46012838D160684FF00408B0F5D8
:101D7000827F01D1A06830B3FFF76EFB8246002F4F
:101D800075D0002E73D094F85000012825D04FF064
:101D9000010984F8509084F851804FF00008C4F88D
:101DA0005480A763A687E687C4F83080A4F83480FF
:101DB000A4F83680C4F84080C4F84480A068B0F528
:101DC000004F0CD015E084F85180009313460A466A
:101DD000204600F01CF9BDE8F88F0220FBE72068E0
:101DE000016821F0400101602068016821F4804110
:101DF000016020680168490603D4016841F0400190
:101E00000160E068C0B134E020688168C90709D08A
:101E1000007BA16B0870A06B401CA063E08F401E8C
:101E2000E08709E0FFF718FBA0EB0A00A84202D305
:101E3000681C01D032E085B3E08F0028E4D11BE0BC
:101E400020688168C90709D0C068A16B0880A06BB1
:101E5000801CA063E08F401EE0870AE0FFF7FCFAD9
:101E6000A0EB0A00A84203D3681C02D016E012E0DF
:101E70009DB1E08F0028E3D152462946204600F06C
:101E8000F5FE08B12020606584F8519084F85080F8
:101E9000606D00289FD001209DE7FFE784F85190F6
:101EA00084F85080032096E72DE9F84F98461646AF
:101EB0008A460446FFF7D0FA814694F8510001287B
:101EC0001ED1BAF1000F73D0002E71D094F85000DB
:101ED000012815D0012784F85070032084F85100A0
:101EE00000256565C4F830A0A686E686A563A587AB
:101EF000E58765642564A068B0F5004F03D00CE069
:101F00000220BDE8F88F2068016821F040010160DF
:101F10002068016841F48041016020680168490639
:101F200003D4016841F040010160E068B0F5006F42
:101F3000606803D048B3012E27D047E008B1012ED6
:101F40001FD1206B21680088C86006E02068816886
:101F5000890709D5216B0988C160206B801C20632B
:101F6000E08E401EE0860CE0FFF776FAA0EB090158
:101F7000414503D3B8F1FF3F03D035E0B8F1000F7E
:101F800032D0E08E0028E1D123E0206B2168007878
:101F9000087306E02068816889070AD5216B0978F3
:101FA0000173206B401C2063E08E401EE0860DE034
:101FB0002BE0FFF751FAA0EB0901414503D3B8F13B
:101FC000FF3F03D010E0B8F1000F0DD0E08E0028E5
:101FD000E0D14A464146204600F076FE08B1202076
:101FE0006065A06830B109E084F8517084F8505001
:101FF000032086E72068C1688068009084F85170EB
:1020000004F8505F60680028F3D0012079E72DE9DB
:10201000FF4F81B01D46934604464FF001090E9EC6
:10202000FFF71AFA074694F851006168012806D0B4
:10203000B1F5827F3CD1A168C9BB042838D1029890
:10204000002871D0BBF1000FFBD0002DF9D094F81F
:10205000500001282CD04FF0010A84F850A094F8C9
:102060005100042802D0052084F851004FF00008E8
:10207000C4F85480C4F838B0E587A5870299216375
:10208000E586A586C4F84080C4F8448020680168CD
:10209000490603D4016841F040010160E068B0F5F1
:1020A000006F606808D0F0B3012D49D081E0FFE7F0
:1020B000022005B0BDE8F08F08B1012D39D1206BA9
:1020C00021680088C860206B801C2063E08E401E61
:1020D000E0862EE02068816889070FD5E18E69B11E
:1020E000B9F1010F0AD1216B0988C160206B801CF6
:1020F0002063E08E401EE0864FF000092068816872
:10210000C9070CD0E18F51B1C068A16B0880A06BEA
:10211000801CA063E08F401EE0874FF00109FFF7AD
:102120009BF9C01B01E00BE067E0B04201D3701CDB
:1021300050D1E08E0028CDD1E08F0028CAD13EE0FA
:10214000206B216800780873206B401C2063E08EB0
:10215000401EE0862DE02068816889070FD5E18E5A
:1021600069B1B9F1010F0AD1216B09780173206BB4
:10217000401C2063E08E401EE0864FF0000920687E
:102180008168C9070CD0E18F51B1C068A16B08709C
:10219000A06B401CA063E08F401EE0874FF0010958
:1021A000FFF75AF9C01BB04202D3701C01D011E0F6
:1021B00086B1E08E0028CED1E08F0028CBD13A4600
:1021C0003146204600F080FD50B12020606584F843
:1021D000508012E084F851A084F85080032068E712
:1021E000A06818B92068C1688068009084F851A080
:1021F00084F85080606D0028F1D0012059E710B5B7
:10220000401EB0F1807F01D3012010BD4FF0E024CB
:1022100060610F21601700F009FF0020A061072016
:102220002061002010BD70477047000070B590F825
:102230003C20012A26D0012480F83C40022280F86C
:102240003D2003685A689D6822F070060A68324390
:102250005A600D4B02689A4208D0B2F1804F05D007
:102260000A4B9A4202D00A4B9A4204D1496825F09F
:1022700080031943916080F83D40002180F83C10B4
:10228000084670BD022070BD002C014000040040D3
:102290000008004090F83D10012901D0012070474E
:1022A000022180F83D100168CA6842F00102CA604C
:1022B00000680B49884208D0B0F1804F05D0094929
:1022C000884202D00849884204D1816801F00701A0
:1022D000062903D0016841F0010101600020704728
:1022E000002C014000040040000800400168CA685A
:1022F00022F00102CA6001680A6A41F211131A420F
:1023000007D10A6A9B101A4203D10A6822F001021F
:102310000A60012180F83D100020704710B5017F50
:1023200001291DD10F4C2178012919D1002100F07C
:1023300071FA60600C48FFF7D9FF00210A4800F0ED
:1023400079F96088010C03046068181841F10001F4
:1023500001F0F2F8054901F02DF8A060022020708C
:1023600010BD000000000020FC0000200024744983
:102370002DE9F041054690F83C0000260C46012866
:1023800010D0012085F83C0072B1042A1CD0082A24
:102390002CD00C2A50D00126002085F83C00304675
:1023A000BDE8F0810220FBE7D4E90012E368286869
:1023B00000F084FD2868816921F00C0181612868A2
:1023C0008169A26811430FE0D4E90012E36828682C
:1023D00000F0A0FD2868816921F4406181612868CE
:1023E0008169A26841EA02218161D5E72868D4E9C0
:1023F000002C277B036A016A21F480710162C169A4
:1024000023F4007321F0030141EA0C0121F0F00CE8
:1024100039074FF400774CEA116107EA02221A43A8
:10242000C16102622868C16921F00C01C16128689C
:10243000C169A26811432BE02868D4E90021E7684C
:10244000036AD0F820C02CF4805CC0F820C0D0F81B
:102450001CC023F400532CF4407C4CEA012121F4ED
:10246000704C4FF6FF7101EA07314FF4005741EA13
:102470000C0107EA02321A43C16102622868C1698D
:1024800021F44061C1612868C169A26841EA022162
:10249000C16181E710B5040003D094F83D0010B18C
:1024A00007E0012010BD002084F83C00204600F029
:1024B0001FF8022084F83D00211D206800F0B4FCC4
:1024C000012084F8460084F83E0084F83F0084F838
:1024D000400084F8410084F8420084F8430084F806
:1024E000440084F8450084F83D00002010BD000041
:1024F00000B585B00021009101910291039100681F
:10250000B0F1804F1ED11048C16941F00101C16195
:10251000C16901F001010491816941F00401816107
:102520008069694600F0040004900120009007488B
:10253000FEF79CFE002211461C20FFF7EBF81C2042
:10254000FFF7DAF805B000BD0010024000080140B6
:1025500030B50446002551B104290DD0082910D00A
:1025600094F8410094F84520012811D10EE094F828
:102570003E0094F84220F7E794F83F0094F8432097
:10258000F2E794F8400094F84420EDE7012A01D0E6
:10259000012030BD022059B1042912D0082919D0D8
:1025A00084F8410084F845000C2938D0012534E036
:1025B00084F83E0084F842002068C26842F00202BB
:1025C00010E084F83F0084F843002068C26842F0BD
:1025D000040207E084F8400084F844002068C268E0
:1025E00042F00802C2600122206800F059FC0E4946
:1025F0002068884208D0B0F1804F05D00B4988424E
:1026000002D00B49884204D1816801F007010629F4
:1026100003D0016841F001010160284630BD206807
:10262000C26842F01002DDE7002C014000040040C7
:102630000008004070B50D0004464FF0000607D0BA
:10264000042D0AD0082D0DD00C2D10D001262FE01E
:102650002068C16821F002010DE02068C16821F006
:10266000040108E02068C16821F0080103E0206847
:10267000C16821F01001C16000222946206800F0E5
:102680000FFC2068016A41F21112114207D1016A60
:102690009210114203D1016821F001010160012073
:1026A00045B1042D09D0082D0AD004F8410F20713E
:1026B000304670BD04F83E0FF9E704F83F0FF6E727
:1026C00004F8400FF3E72DE9F04104460068C668BE
:1026D00005694FF00007A90713D5B10711D5F91EF9
:1026E000016101202077206880698007204602D0A0
:1026F000FFF714FE04E000F07EF8204600F07CF8BE
:102700002777680716D5700714D521686FF0040085
:102710000861022020772068806910F4407F2046FD
:1027200002D0FFF7FBFD04E000F065F8204600F062
:1027300063F82777280715D5300713D521686FF080
:1027400008000861042020772068C06980072046BF
:1027500002D0FFF7E3FD04E000F04DF8204600F062
:102760004BF82777E80616D5F00614D521686FF0E8
:1027700010000861082020772068C06910F4407FAD
:10278000204602D0FFF7CAFD04E000F034F82046EE
:1027900000F032F82777E80708D0F00706D0216864
:1027A0006FF001000861204600F028F8280608D5DF
:1027B000300606D521686FF0800008612046FFF7DB
:1027C00032FD680608D5700606D521686FF0400016
:1027D0000861204600F033F8A8060AD5B00608D5EF
:1027E00021686FF0200008612046BDE8F041FFF746
:1027F0001BBDBDE8F0817047704700000068B0F174
:10280000804F03D102494888401C4880704700002F
:10281000000000200246002041B1042909D0082907
:102820000AD00C2901D11068006C70471068406B09
:1028300070471068806B70471068C06B70477047B6
:10284000FEE7000070B501220B4D14022146284618
:10285000FEF7FCFD0122560231462846FEF7F6FD42
:10286000002231462846FEF7F1FD21462846BDE804
:1028700070400022FEF7EABD000C014070B50D4D1E
:102880004FF48074002221462846FEF7DFFD6600E3
:10289000002231462846FEF7D9FD0122214628466E
:1028A000FEF7D4FD31462846BDE870400122FEF710
:1028B000CDBD0000000C014070B50122064D140290
:1028C00021462846FEF7C2FD21462846BDE8704055
:1028D0000022FEF7BBBD0000000C014030B585B002
:1028E000002000900190029003901748816941F008
:1028F00020018161816901F020010491816941F029
:1029000004018161816901F004010491816941F050
:102910000801816180690D4D00F008004FF440749A
:102920000490012221462846FEF790FD1120CDE9B2
:102930000040012002900320039069462846FEF7DC
:1029400095FC05B030BD000000100240000C0140B5
:102950000D4810B50B4901600C49416000214FF44E
:1029600080428160C0E9031241618161C1610162FD
:10297000FEF778FD002803D0BDE81040FEF761BCEB
:1029800010BD00000054004050000020A08601004F
:10299000104810B50E4901604FF48271416000216A
:1029A0008160C1604FF400720161C0E90512182214
:1029B000C0E90721416281620A21C162FFF738F94B
:1029C000002803D0BDE81040FEF73BBC10BD00005E
:1029D00000300140A400002010B586B00024194842
:1029E000059404940094019402944FF08041039460
:1029F00001604721C0E901144FF6FF71C0E90314DB
:102A00008461FFF747FD08B1FEF71BFC049404A99D
:102A10000C480594FFF70AFC08B1FEF712FC0220EF
:102A200000900120CDE901040820039000226946AE
:102A30000448FFF79DFC002801D0FEF702FC06B019
:102A400010BD0000FC000020FEE7FEE770B500248A
:102A5000002104F1B00000F002F90021084600F066
:102A6000FEF80021102000F0FAF8002501210020D6
:102A700000F0F5F86D1CEDB2802DF7D3641CE4B2C4
:102A8000082CE5D370BD10B5C820FEF7DDFB002192
:102A9000AE2000F0E4F80021084600F0E0F8002144
:102AA000102000F0DCF80021402000F0D8F80021D0
:102AB000812000F0D4F80021CF2000F0D0F80021D0
:102AC000A12000F0CCF80021C82000F0C8F80021B7
:102AD000A62000F0C4F80021A82000F0C0F80021D2
:102AE0003F2000F0BCF80021D32000F0B8F800210E
:102AF000084600F0B4F80021D52000F0B0F800211D
:102B0000802000F0ACF80021D92000F0A8F80021C6
:102B1000F12000F0A4F80021DA2000F0A0F8002154
:102B2000122000F09CF80021DB2000F098F8002132
:102B3000402000F094F80021202000F090F80021BF
:102B4000022000F08CF800218D2000F088F8002190
:102B5000142000F084F80021A42000F080F8002167
:102B6000A62000F07CF80021AF2000F078F8BDE846
:102B70001040FFF76BBF10B50A460446002102F172
:102B8000B00000F06CF8102040EA1410002100F0B2
:102B900066F804F00F00BDE81040002100F05FB8B7
:102BA0002DE9F041203A00240D468046D6B27F2818
:102BB00003D900208D1C8046EDB2102B294610D081
:102BC000FFF7D9FF164906EB460001EB400501214E
:102BD000285D00F044F8641CE4B2062CF7D3BDE88D
:102BE000F081FFF7C8FF0F4F04EB06100121385C9E
:102BF00000F035F8641CE4B2082CF5D36D1CE9B282
:102C00004046FFF7B8FF002404EB061038440121CA
:102C1000007A00F024F8641CE4B2082CF4D3DEE758
:102C2000323600085A3800082DE9F0419846174618
:102C30000E46044600250DE0434631462046FFF788
:102C4000AFFF0834E4B2782C02D90024B61CF6B2E7
:102C50006D1CEDB27A5D002AEED1BDE8F081C0B204
:102C600009B100F0B8B900F09FB97047F8B5044653
:102C700040684FF48273984217D1A0684FF4806582
:102C8000B0F5004F01D0A8420FD12068066826F0A9
:102C9000400606606068984207D1A068A84204D147
:102CA00000920B460022012103E000920B46002215
:102CB0008021204600F022F8002804D0606D40F00A
:102CC000200060650320F8BDF8B515460E460B469A
:102CD000009204460122022100F010F840B9334668
:102CE000002280212046009500F008F8002804D03A
:102CF000606D40F0200060650320F8BD2DE9F843C9
:102D00001E46914688460446089DFEF7A5FB401BDB
:102D1000351AFEF7A1FB074625480068C0F3CB3003
:102D2000684338E0701C37D0FEF796FBC01BA84202
:102D300003D215B1009860B32CE02068416821F0FF
:102D4000E00141606068B0F5827F0BD1A068B0F50A
:102D5000004F02D0B0F5806F04D12068016821F0E7
:102D600040010160A06AB0F5005F09D120680168E8
:102D700021F4005101602068016841F400510160B4
:102D8000012084F85100002084F850000320BDE8A1
:102D9000F8830025401E00902068816838EA010011
:102DA00004D000214945BDD10020F0E70121F9E719
:102DB000180000207047FEF747BC30B58FB02821BF
:102DC0006846FDF7A8FA14210AA8FDF7A4FA012124
:102DD0000804CDE900100024029402250491CDE9F5
:102DE00007504FF4E01009906846FEF791FD08B1D6
:102DF00072B6FEE70F20CDE90A054FF48060CDE9F9
:102E00000C4002210AA80E94FEF7B6FC002801D05F
:102E100072B6FEE70FB030BD704700000148FFF703
:102E200052BC0000FC000020F0B50268194B1A4C9F
:102E30001A4D4FF08047984205D0B84203D0A042C7
:102E400001D0A84203D122F070064A68324398426A
:102E500005D0B84203D0A04201D0A84203D122F449
:102E60004074CA6822434C6922F080022243026007
:102E70008A68C2620A688262984201D10969016364
:102E8000012141610169C90703D0016921F00101F4
:102E90000161F0BD002C014000040040000800402A
:102EA00010B501F01F030121046A99408C430462AC
:102EB000016A9A401143016210BD000070B5056AB5
:102EC000046A24F00104046284690F4EB04208D001
:102ED000B0F1804F05D00D4EB04202D00C4EB04242
:102EE00003D124F00304144301E044F001041A0761
:102EF00024F0F00444EA126225F00A0301F00A010A
:102F000019438261016270BD002C01400004004041
:102F10000008004030B5046A056A25F01005056216
:102F2000856925F4407545EA022222F470454FF682
:102F3000FF7202EA033224F0A0032A43A02404EA29
:102F4000011119438261016230BDFEE72DE9F041B4
:102F5000144F04464FF48076002231463846FEF77F
:102F600075FA00254FF4007804F08000802816D010
:102F7000002241463846FEF769FA6006040E012237
:102F800031463846FEF762FA002231463846FEF7EF
:102F90005DFA6D1CEDB2082DE6D3BDE8F08101228B
:102FA000E7E70000000C014010B50446FFF74AFCBB
:102FB0007820FFF7CBFFFFF77FFC0020FFF7C6FF6D
:102FC000FFF77AFC2046FFF7C1FFFFF775FCBDE86D
:102FD0001040FFF753BC10B50446FFF733FC7820D0
:102FE000FFF7B4FFFFF768FC4020FFF7AFFFFFF7E4
:102FF00063FC2046FFF7AAFFFFF75EFCBDE8104028
:10300000FFF73CBC490050EAC12018BF04204A0D1C
:1030100018BF40F0010040F2FF72B2EB515F08BFF1
:1030200040F00200012808BF052070470907090E7B
:10303000002804DB00F1E02080F80014704700F065
:103040000F0000F1E02080F8141D704730380A2886
:1030500001D2012070470020704700000122114674
:103060000148FEF7F3B90000000C014000220121E5
:103070000148FEF7EBB90000000C014001221021CD
:103080000148FEF7E3B900000008014000221021CA
:103090000148FEF7DBB9000000080140FEF7DCFA4A
:1030A000FFF78BFEFFF71AFCFFF752FCFFF770FCEF
:1030B000FFF792FCFFF7E7FCFFF7C8FC00211023A5
:1030C00026A20846FFF7B0FD0021282000F0ACF84A
:1030D0004FF4FA70FEF7B8F8FFF7B8FC00211023A0
:1030E00022A20846FFF7A0FD244C2078D0B1022888
:1030F000FBD10021102322A20846FFF795FDA0680E
:1031000000F02CF902460B4621A12448FDF768F88F
:103110001023224A02210020FFF786FDC820FEF777
:1031200093F8E2E71D48203800F0A2F80128DCD12E
:1031300020701B4900206080096848621848FFF72A
:10314000A9F800211648FFF703FAFFF77FFC0021DA
:10315000102314A20846FFF767FDC6E7537973747E
:10316000656D20496E69742E2E2E000057616974BA
:1031700020666F7220474F2E2E2E00000000002088
:1031800046494E49534821202020202000000000BD
:1031900054696D653A20252E336673003C0000208B
:1031A000FC00002052554E4E494E4721212100007F
:1031B00008B5FFF75BFF0821002000F095F801211A
:1031C000084600F091F80121022000F08DF803215B
:1031D000084600F089F81A21042000F085F828211B
:1031E000052000F081F80F21062000F07DF8E12095
:1031F0008DF80000FFF74AFF642301226946094861
:10320000FEF752FEFFF73AFFE2208DF80000FFF7CD
:103210003DFF6423012269460248FEF745FEFFF7A1
:103220002DFF08BDA400002070B50C460546FFF731
:10323000BFFF2946052000F057F8062114B1022CE3
:1032400002D002E0262100E00E21062000F04CF81A
:103250002021112000F048F8002000F02DF840F067
:103260000301002000F040F8BDE87040FFF7F6BE13
:1032700038B50446072000F01FF8400618D5612035
:103280008DF80000FFF702FF642301226946094818
:10329000FEF70AFE6423202221460648FEF75AFD67
:1032A000FFF7ECFE4021072000F01EF8012038BD9A
:1032B000002038BDA40000201CB58DF80000FFF7E9
:1032C000E5FE6423012269460648FEF7EDFD64230E
:1032D000012201A90348FEF73DFDFFF7CFFE9DF84F
:1032E00004001CBDA400002003B583B040F0200002
:1032F0008DF80400FFF7CAFE64200090012302AAA3
:1033000001A90748FEF783FE6423012204A90448AB
:10331000FEF7CAFDFFF7B2FE9DF8080005B000BD3C
:10332000A400002010B500290AD00878002807D092
:1033300005487844FDF774FB002801D0002010BD3B
:103340000248784410BD0000F60B0000EE0B0000B0
:103350000808A0F500114FEA3101704743004FEA19
:10336000D30C4FEA3C0C43401FBF40070CF16051A7
:1033700013F0FE4F70471CF0006F03D100200CF0DB
:10338000004170470CF0004343EA507010B540EA2A
:10339000CC0000F001F900BF000000924FEA0001EC
:1033A000FFF7D6BF4FF000414FF00000A1F500211C
:1033B000704700004FF47F0C1CEAD0121EBF1CEABD
:1033C000D11392EA0C0F93EA0C0F00F0858090EA7B
:1033D000010F48BF42F4807240F4000C41F4000039
:1033E0002CF07F4120F07F4000B58142A2EB030228
:1033F0000FF2081CACEB504EC0F100009EF800E04C
:103400004FEA4E0E00FB0EFC38BF49004FEA2C1C61
:1034100002F5FA020CFB0EF34FEACE1E4FEA112C16
:103420004FEAC1210EEB635E42EB22420EFB0CFC25
:103430004FEA1C5300FB03114FEA112C4FEA0131F4
:103440000EFB0CFC4FEADC4C00FB0C11C14228BF08
:1034500009184CEB03335DF804EB10EB410143EB2F
:10346000C250B2F57C0F38BF704729D512F0F00F6B
:103470001CBF00F1C04000F0004070470081828313
:103480008485868788898B8C8D8E8F919293959673
:1034900097999A9C9D9FA0A2A3A5A7A8AAACAEB0FD
:1034A000B2B3B5B7B9BCBEC0C2C5C7C9CCCED1D402
:1034B000D7D9DCDFE2E6E9ECF0F3F7FAFE00000032
:1034C0004FEA400C0CF1807CBCF17E4F28BF704766
:1034D000B0F1C04000F0A6B890EA010F0CEAD11399
:1034E00048BF42F48072624538BF634507D213F487
:1034F0007F0F16D080EA010000F00040704710B541
:1035000000F04AF8097EFC3E00F005B880EA0100B0
:1035100000F00040704780EA010000F0004000F039
:1035200081B812F47F0F04BF0248704780EA01009F
:1035300000F078B80000C07F4FF07E5209E011F033
:10354000004204D54042C1F1000138BF491E42F09B
:103550007E520B0002F1706212BF20235FEA00016D
:103560007047B1FA81FCA3EB0C0301FA0CF120FACD
:1035700003FC02EBC352C3F1200341EA0C0110FA31
:1035800003FC5CEA416C42EB112018BF5FF0806CD9
:1035900028BF20F0010070470EF1020E2EF0030E3E
:1035A0005EF8044B244204D44FEA4102B2F17F4F4B
:1035B00011D84FEA4003B3F17F4F0CD80ED14FEA38
:1035C000D07CB2F17F4F0CEB4C0C0CF1020C08BF1D
:1035D0004CEBD17C04E04FF0080C01E04FEAD17CC9
:1035E0000CEB4C0324FA03F404F00704B4F1040CCC
:1035F00006D20EEB840CBDE810404CF0010C604785
:10360000DFE80CF0070802024FF00040A0F5800050
:1036100010BD0846420018BFD2F1807288BF00F08A
:10362000004010BDFF2141EAD050C0057047FCF7B3
:1036300075BF0000000000000000002F0000000027
:103640000700070000147F147F1400242A7F2A1229
:103650000062640813230036495522500000050318
:10366000000000001C224100000041221C00001448
:10367000083E08140008083E0808000000A060008A
:10368000000808080808000060600000002010081A
:103690000402003E5149453E0000427F4000004286
:1036A00061514946002141454B31001814127F10E9
:1036B000002745454539003C4A4949300001710918
:1036C000050300364949493600064949291E0000CC
:1036D0003636000000005636000000081422410073
:1036E00000141414141400004122140800020151A3
:1036F000090600324959513E007C1211127C007FAC
:1037000049494936003E41414122007F4141221C46
:10371000007F49494941007F09090901003E4149AB
:10372000497A007F0808087F0000417F410000209F
:1037300040413F01007F08142241007F404040404B
:10374000007F020C027F007F0408107F003E414191
:10375000413E007F09090906003E4151215E007F7C
:10376000091929460046494949310001017F0101F3
:10377000003F4040403F001F2040201F003F403896
:10378000403F0063140814630007087008070061D5
:103790005149454300007F41410000552A552A55B3
:1037A000000041417F00000402010204004040404B
:1037B0004040000001020400002054545478007F6F
:1037C0004844443800384444442000384444487F46
:1037D00000385454541800087E0901020018A4A4AB
:1037E000A47C007F080404780000447D4000004071
:1037F00080847D00007F102844000000417F40004D
:10380000007C04180478007C0804047800384444E0
:10381000443800FC242424180018242418FC007CBC
:103820000804040800485454542000043F44402035
:10383000003C4040207C001C2040201C003C4030CC
:10384000403C004428102844001CA0A0A07C004458
:1038500064544C44141414141414000000000000A8
:1038600000000000000000000000000000F8000060
:103870000000000000333000000000100C06100CA7
:103880000600000000000000000040C07840C07842
:103890004000043F04043F040400007088FC08302A
:1038A0000000001820FF211E0000F008F000E018C2
:1038B000000000211C031E211E0000F0088870007B
:1038C00000001E2123241927211010160E000000CD
:1038D00000000000000000000000000000E01804EC
:1038E0000200000000071820400000020418E00059
:1038F00000000040201807000000404080F0804099
:1039000040000202010F01020200000000F000006E
:1039100000000101011F0101010000000000000082
:10392000000080B0700000000000000000000000F7
:103930000000000101010101010100000000000080
:103940000000003030000000000000000000806037
:103950001804006018060100000000E010080810BC
:10396000E000000F102020100F00001010F80000E1
:1039700000000020203F2020000000700808088878
:103980007000003028242221300000300888884848
:1039900030000018202020110E000000C02010F878
:1039A000000000070424243F240000F80888880849
:1039B00008000019212020110E0000E0108888184E
:1039C0000000000F112020110E0000380808C83830
:1039D00008000000003F0000000000708808088810
:1039E0007000001C222121221C0000E01008081099
:1039F000E0000000312222110F00000000C0C000D2
:103A000000000000003030000000000000800000D6
:103A100000000000806000000000000080402010D6
:103A200008000001020408102000404040404040CF
:103A30004000040404040404040000081020408032
:103A40000000002010080402010000704808080867
:103A5000F0000000003036010000C030C828E81037
:103A6000E0000718272423140B000000C038E000F2
:103A70000000203C23020227382008F8888888703C
:103A80000000203F202020110E00C0300808080848
:103A90003800071820202010080008F8080808102F
:103AA000E000203F202020100F0008F88888E80858
:103AB0001000203F20202320180008F88888E808FC
:103AC0001000203F200003000000C0300808083824
:103AD000000007182020221E020008F80800000835
:103AE000F808203F210101213F20000808F80808BC
:103AF00000000020203F2020000000000808F808F7
:103B00000800C08080807F00000008F888C0281866
:103B10000800203F20012638200008F80800000097
:103B20000000203F20202020300008F8F800F8F89E
:103B30000800203F003F003F200008F830C0000888
:103B4000F808203F200007183F00E0100808081080
:103B5000E0000F10202020100F0008F808080808C7
:103B6000F000203F210101010000E01008080810CA
:103B7000E0000F18242438504F0008F888888888FF
:103B80007000203F2000030C3020007088080808D7
:103B900038000038202121221C00180808F80808E5
:103BA00018000000203F2000000008F8080000086E
:103BB000F808001F202020201F000878880000C877
:103BC0003808000007380E010000F80800F8000867
:103BD000F800033C0700073C030008186880806871
:103BE000180820302C03032C30200838C800C838AF
:103BF00008000000203F2000000010080808C83816
:103C000008002038262120201800000000FE0202B3
:103C100002000000007F40404000000C30C0000067
:103C20000000000000010638C00000020202FE0091
:103C30000000004040407F0000000000040202023B
:103C40000400000000000000000000000000000070
:103C5000000080808080808080800002020400005C
:103C60000000000000000000000000008080808054
:103C700000000019242222223F2008F80080800042
:103C80000000003F112020110E0000000080808005
:103C90000000000E1120202011000000008080880C
:103CA000F800000E112020103F200000808080804E
:103CB0000000001F222222221300008080F088884A
:103CC00088180020203F2020000000008080808095
:103CD0008000006B94949493600008F800808080CA
:103CE0000000203F210000203F2000809898000025
:103CF00000000020203F2020000000000080989855
:103D0000000000C08080807F000008F800008080F4
:103D10008000203F24022D302000000808F8000019
:103D200000000020203F20200000808080808080D4
:103D30008000203F20003F20003F80800080808066
:103D40000000203F210000203F2000008080808074
:103D50000000001F202020201F00808000808000A5
:103D6000000080FFA12020110E0000000080808054
:103D70008000000E112020A0FF80808080008080C5
:103D8000800020203F2120000100000080808080F2
:103D900080000033242424241900008080E08080E7
:103DA00000000000001F2020000080800000008034
:103DB0008000001F202020103F2080808000008095
:103DC000808000010E3008060100808000800080A5
:103DD00080800F300C030C300F000080800080804A
:103DE00080000020312E0E31200080808000008075
:103DF000808080818E701806010000808080808025
:103E000080000021302C2221300000000000807C46
:103E1000020200000000003F404000000000FF00E0
:103E2000000000000000FF0000000002027C800093
:103E300000000040403F00000000000601010202B7
:103E40000404000000000000000001020203040559
:103E5000060708090A0B0C0D0E0F101000000000D9
:103E6000000000000102030406070809000000002A
:103E70000102030402400000000000A00000000056
:103E800005400000000000C8000000000C400000D9
:103E90000000409C00000000194000000020BCBE53
:103EA0000000000034400000BFC91B8E0000000469
:103EB000B5400000504BCFD06607E2CF01000000B4
:103EC0006C4100003E8251AADFEEA73401000000E1
:103ED000D9420000DCB5A0E23A301F97FFFFFFFF98
:103EE000B4450000FD25A0C8E9A3C14FFFFFFFFFB7
:103EF000FF3F00000000008000000000FF3F0000C6
:103F00000000008000000000443F00080000002086
:103F10001C00000028010008603F00081C00002071
:103F20008C070000440100081C0000004300000052
:103F3000F8FFFFFF0C0000000E0000000F00000063
:103F40002E00000000000000000000000000000043
:103F500001000000100000000000000000127A00C4
:04000005080000ED02
:00000001FF
